{
  "_format": "hh-sol-artifact-1",
  "contractName": "UniswapV2Router",
  "sourceName": "contracts/common/UniswapV2Router.sol",
  "abi": [
    {
      "inputs": [
        {
          "internalType": "address",
          "name": "_factory",
          "type": "address"
        },
        {
          "internalType": "address",
          "name": "_WETH",
          "type": "address"
        }
      ],
      "stateMutability": "nonpayable",
      "type": "constructor"
    },
    {
      "inputs": [],
      "name": "WETH",
      "outputs": [
        {
          "internalType": "address",
          "name": "",
          "type": "address"
        }
      ],
      "stateMutability": "view",
      "type": "function"
    },
    {
      "inputs": [
        {
          "internalType": "address",
          "name": "tokenA",
          "type": "address"
        },
        {
          "internalType": "address",
          "name": "tokenB",
          "type": "address"
        },
        {
          "internalType": "uint256",
          "name": "amountADesired",
          "type": "uint256"
        },
        {
          "internalType": "uint256",
          "name": "amountBDesired",
          "type": "uint256"
        },
        {
          "internalType": "uint256",
          "name": "amountAMin",
          "type": "uint256"
        },
        {
          "internalType": "uint256",
          "name": "amountBMin",
          "type": "uint256"
        },
        {
          "internalType": "address",
          "name": "to",
          "type": "address"
        },
        {
          "internalType": "uint256",
          "name": "deadline",
          "type": "uint256"
        }
      ],
      "name": "addLiquidity",
      "outputs": [
        {
          "internalType": "uint256",
          "name": "amountA",
          "type": "uint256"
        },
        {
          "internalType": "uint256",
          "name": "amountB",
          "type": "uint256"
        },
        {
          "internalType": "uint256",
          "name": "liquidity",
          "type": "uint256"
        }
      ],
      "stateMutability": "nonpayable",
      "type": "function"
    },
    {
      "inputs": [
        {
          "internalType": "address",
          "name": "token",
          "type": "address"
        },
        {
          "internalType": "uint256",
          "name": "amountTokenDesired",
          "type": "uint256"
        },
        {
          "internalType": "uint256",
          "name": "amountTokenMin",
          "type": "uint256"
        },
        {
          "internalType": "uint256",
          "name": "amountETHMin",
          "type": "uint256"
        },
        {
          "internalType": "address",
          "name": "to",
          "type": "address"
        },
        {
          "internalType": "uint256",
          "name": "deadline",
          "type": "uint256"
        }
      ],
      "name": "addLiquidityETH",
      "outputs": [
        {
          "internalType": "uint256",
          "name": "amountToken",
          "type": "uint256"
        },
        {
          "internalType": "uint256",
          "name": "amountETH",
          "type": "uint256"
        },
        {
          "internalType": "uint256",
          "name": "liquidity",
          "type": "uint256"
        }
      ],
      "stateMutability": "payable",
      "type": "function"
    },
    {
      "inputs": [],
      "name": "factory",
      "outputs": [
        {
          "internalType": "address",
          "name": "",
          "type": "address"
        }
      ],
      "stateMutability": "view",
      "type": "function"
    },
    {
      "inputs": [
        {
          "internalType": "uint256",
          "name": "amountOut",
          "type": "uint256"
        },
        {
          "internalType": "uint256",
          "name": "reserveIn",
          "type": "uint256"
        },
        {
          "internalType": "uint256",
          "name": "reserveOut",
          "type": "uint256"
        },
        {
          "internalType": "uint256",
          "name": "feeBps",
          "type": "uint256"
        }
      ],
      "name": "getAmountIn",
      "outputs": [
        {
          "internalType": "uint256",
          "name": "amountIn",
          "type": "uint256"
        }
      ],
      "stateMutability": "pure",
      "type": "function"
    },
    {
      "inputs": [
        {
          "internalType": "uint256",
          "name": "amountIn",
          "type": "uint256"
        },
        {
          "internalType": "uint256",
          "name": "reserveIn",
          "type": "uint256"
        },
        {
          "internalType": "uint256",
          "name": "reserveOut",
          "type": "uint256"
        },
        {
          "internalType": "uint256",
          "name": "feeBps",
          "type": "uint256"
        }
      ],
      "name": "getAmountOut",
      "outputs": [
        {
          "internalType": "uint256",
          "name": "amountOut",
          "type": "uint256"
        }
      ],
      "stateMutability": "pure",
      "type": "function"
    },
    {
      "inputs": [
        {
          "internalType": "uint256",
          "name": "amountOut",
          "type": "uint256"
        },
        {
          "internalType": "address[]",
          "name": "path",
          "type": "address[]"
        }
      ],
      "name": "getAmountsIn",
      "outputs": [
        {
          "internalType": "uint256[]",
          "name": "amounts",
          "type": "uint256[]"
        }
      ],
      "stateMutability": "view",
      "type": "function"
    },
    {
      "inputs": [
        {
          "internalType": "uint256",
          "name": "amountIn",
          "type": "uint256"
        },
        {
          "internalType": "address[]",
          "name": "path",
          "type": "address[]"
        }
      ],
      "name": "getAmountsOut",
      "outputs": [
        {
          "internalType": "uint256[]",
          "name": "amounts",
          "type": "uint256[]"
        }
      ],
      "stateMutability": "view",
      "type": "function"
    },
    {
      "inputs": [
        {
          "internalType": "address",
          "name": "tokenA",
          "type": "address"
        },
        {
          "internalType": "address",
          "name": "tokenB",
          "type": "address"
        }
      ],
      "name": "getReserves",
      "outputs": [
        {
          "internalType": "uint256",
          "name": "",
          "type": "uint256"
        },
        {
          "internalType": "uint256",
          "name": "",
          "type": "uint256"
        }
      ],
      "stateMutability": "view",
      "type": "function"
    },
    {
      "inputs": [
        {
          "internalType": "address",
          "name": "tokenA",
          "type": "address"
        },
        {
          "internalType": "address",
          "name": "tokenB",
          "type": "address"
        }
      ],
      "name": "pairFor",
      "outputs": [
        {
          "internalType": "address",
          "name": "",
          "type": "address"
        }
      ],
      "stateMutability": "view",
      "type": "function"
    },
    {
      "inputs": [
        {
          "internalType": "uint256",
          "name": "amountA",
          "type": "uint256"
        },
        {
          "internalType": "uint256",
          "name": "reserveA",
          "type": "uint256"
        },
        {
          "internalType": "uint256",
          "name": "reserveB",
          "type": "uint256"
        }
      ],
      "name": "quote",
      "outputs": [
        {
          "internalType": "uint256",
          "name": "amountB",
          "type": "uint256"
        }
      ],
      "stateMutability": "pure",
      "type": "function"
    },
    {
      "inputs": [
        {
          "internalType": "address",
          "name": "tokenA",
          "type": "address"
        },
        {
          "internalType": "address",
          "name": "tokenB",
          "type": "address"
        },
        {
          "internalType": "uint256",
          "name": "liquidity",
          "type": "uint256"
        },
        {
          "internalType": "uint256",
          "name": "amountAMin",
          "type": "uint256"
        },
        {
          "internalType": "uint256",
          "name": "amountBMin",
          "type": "uint256"
        },
        {
          "internalType": "address",
          "name": "to",
          "type": "address"
        },
        {
          "internalType": "uint256",
          "name": "deadline",
          "type": "uint256"
        }
      ],
      "name": "removeLiquidity",
      "outputs": [
        {
          "internalType": "uint256",
          "name": "amountA",
          "type": "uint256"
        },
        {
          "internalType": "uint256",
          "name": "amountB",
          "type": "uint256"
        }
      ],
      "stateMutability": "nonpayable",
      "type": "function"
    },
    {
      "inputs": [
        {
          "internalType": "address",
          "name": "token",
          "type": "address"
        },
        {
          "internalType": "uint256",
          "name": "liquidity",
          "type": "uint256"
        },
        {
          "internalType": "uint256",
          "name": "amountTokenMin",
          "type": "uint256"
        },
        {
          "internalType": "uint256",
          "name": "amountETHMin",
          "type": "uint256"
        },
        {
          "internalType": "address",
          "name": "to",
          "type": "address"
        },
        {
          "internalType": "uint256",
          "name": "deadline",
          "type": "uint256"
        }
      ],
      "name": "removeLiquidityETH",
      "outputs": [
        {
          "internalType": "uint256",
          "name": "amountToken",
          "type": "uint256"
        },
        {
          "internalType": "uint256",
          "name": "amountETH",
          "type": "uint256"
        }
      ],
      "stateMutability": "nonpayable",
      "type": "function"
    },
    {
      "inputs": [
        {
          "internalType": "address",
          "name": "token",
          "type": "address"
        },
        {
          "internalType": "uint256",
          "name": "liquidity",
          "type": "uint256"
        },
        {
          "internalType": "uint256",
          "name": "amountTokenMin",
          "type": "uint256"
        },
        {
          "internalType": "uint256",
          "name": "amountETHMin",
          "type": "uint256"
        },
        {
          "internalType": "address",
          "name": "to",
          "type": "address"
        },
        {
          "internalType": "uint256",
          "name": "deadline",
          "type": "uint256"
        }
      ],
      "name": "removeLiquidityETHSupportingFeeOnTransferTokens",
      "outputs": [
        {
          "internalType": "uint256",
          "name": "amountETH",
          "type": "uint256"
        }
      ],
      "stateMutability": "nonpayable",
      "type": "function"
    },
    {
      "inputs": [
        {
          "internalType": "address",
          "name": "token",
          "type": "address"
        },
        {
          "internalType": "uint256",
          "name": "liquidity",
          "type": "uint256"
        },
        {
          "internalType": "uint256",
          "name": "amountTokenMin",
          "type": "uint256"
        },
        {
          "internalType": "uint256",
          "name": "amountETHMin",
          "type": "uint256"
        },
        {
          "internalType": "address",
          "name": "to",
          "type": "address"
        },
        {
          "internalType": "uint256",
          "name": "deadline",
          "type": "uint256"
        },
        {
          "internalType": "bool",
          "name": "approveMax",
          "type": "bool"
        },
        {
          "internalType": "uint8",
          "name": "v",
          "type": "uint8"
        },
        {
          "internalType": "bytes32",
          "name": "r",
          "type": "bytes32"
        },
        {
          "internalType": "bytes32",
          "name": "s",
          "type": "bytes32"
        }
      ],
      "name": "removeLiquidityETHWithPermit",
      "outputs": [
        {
          "internalType": "uint256",
          "name": "amountToken",
          "type": "uint256"
        },
        {
          "internalType": "uint256",
          "name": "amountETH",
          "type": "uint256"
        }
      ],
      "stateMutability": "nonpayable",
      "type": "function"
    },
    {
      "inputs": [
        {
          "internalType": "address",
          "name": "token",
          "type": "address"
        },
        {
          "internalType": "uint256",
          "name": "liquidity",
          "type": "uint256"
        },
        {
          "internalType": "uint256",
          "name": "amountTokenMin",
          "type": "uint256"
        },
        {
          "internalType": "uint256",
          "name": "amountETHMin",
          "type": "uint256"
        },
        {
          "internalType": "address",
          "name": "to",
          "type": "address"
        },
        {
          "internalType": "uint256",
          "name": "deadline",
          "type": "uint256"
        },
        {
          "internalType": "bool",
          "name": "approveMax",
          "type": "bool"
        },
        {
          "internalType": "uint8",
          "name": "v",
          "type": "uint8"
        },
        {
          "internalType": "bytes32",
          "name": "r",
          "type": "bytes32"
        },
        {
          "internalType": "bytes32",
          "name": "s",
          "type": "bytes32"
        }
      ],
      "name": "removeLiquidityETHWithPermitSupportingFeeOnTransferTokens",
      "outputs": [
        {
          "internalType": "uint256",
          "name": "amountETH",
          "type": "uint256"
        }
      ],
      "stateMutability": "nonpayable",
      "type": "function"
    },
    {
      "inputs": [
        {
          "internalType": "address",
          "name": "tokenA",
          "type": "address"
        },
        {
          "internalType": "address",
          "name": "tokenB",
          "type": "address"
        },
        {
          "internalType": "uint256",
          "name": "liquidity",
          "type": "uint256"
        },
        {
          "internalType": "uint256",
          "name": "amountAMin",
          "type": "uint256"
        },
        {
          "internalType": "uint256",
          "name": "amountBMin",
          "type": "uint256"
        },
        {
          "internalType": "address",
          "name": "to",
          "type": "address"
        },
        {
          "internalType": "uint256",
          "name": "deadline",
          "type": "uint256"
        },
        {
          "internalType": "bool",
          "name": "approveMax",
          "type": "bool"
        },
        {
          "internalType": "uint8",
          "name": "v",
          "type": "uint8"
        },
        {
          "internalType": "bytes32",
          "name": "r",
          "type": "bytes32"
        },
        {
          "internalType": "bytes32",
          "name": "s",
          "type": "bytes32"
        }
      ],
      "name": "removeLiquidityWithPermit",
      "outputs": [
        {
          "internalType": "uint256",
          "name": "amountA",
          "type": "uint256"
        },
        {
          "internalType": "uint256",
          "name": "amountB",
          "type": "uint256"
        }
      ],
      "stateMutability": "nonpayable",
      "type": "function"
    },
    {
      "inputs": [
        {
          "internalType": "uint256",
          "name": "amountOut",
          "type": "uint256"
        },
        {
          "internalType": "address[]",
          "name": "path",
          "type": "address[]"
        },
        {
          "internalType": "address",
          "name": "to",
          "type": "address"
        },
        {
          "internalType": "uint256",
          "name": "deadline",
          "type": "uint256"
        }
      ],
      "name": "swapETHForExactTokens",
      "outputs": [
        {
          "internalType": "uint256[]",
          "name": "amounts",
          "type": "uint256[]"
        }
      ],
      "stateMutability": "payable",
      "type": "function"
    },
    {
      "inputs": [
        {
          "internalType": "uint256",
          "name": "amountOutMin",
          "type": "uint256"
        },
        {
          "internalType": "address[]",
          "name": "path",
          "type": "address[]"
        },
        {
          "internalType": "address",
          "name": "to",
          "type": "address"
        },
        {
          "internalType": "uint256",
          "name": "deadline",
          "type": "uint256"
        }
      ],
      "name": "swapExactETHForTokens",
      "outputs": [
        {
          "internalType": "uint256[]",
          "name": "amounts",
          "type": "uint256[]"
        }
      ],
      "stateMutability": "payable",
      "type": "function"
    },
    {
      "inputs": [
        {
          "internalType": "uint256",
          "name": "amountOutMin",
          "type": "uint256"
        },
        {
          "internalType": "address[]",
          "name": "path",
          "type": "address[]"
        },
        {
          "internalType": "address",
          "name": "to",
          "type": "address"
        },
        {
          "internalType": "uint256",
          "name": "deadline",
          "type": "uint256"
        }
      ],
      "name": "swapExactETHForTokensSupportingFeeOnTransferTokens",
      "outputs": [],
      "stateMutability": "payable",
      "type": "function"
    },
    {
      "inputs": [
        {
          "internalType": "uint256",
          "name": "amountIn",
          "type": "uint256"
        },
        {
          "internalType": "uint256",
          "name": "amountOutMin",
          "type": "uint256"
        },
        {
          "internalType": "address[]",
          "name": "path",
          "type": "address[]"
        },
        {
          "internalType": "address",
          "name": "to",
          "type": "address"
        },
        {
          "internalType": "uint256",
          "name": "deadline",
          "type": "uint256"
        }
      ],
      "name": "swapExactTokensForETH",
      "outputs": [
        {
          "internalType": "uint256[]",
          "name": "amounts",
          "type": "uint256[]"
        }
      ],
      "stateMutability": "nonpayable",
      "type": "function"
    },
    {
      "inputs": [
        {
          "internalType": "uint256",
          "name": "amountIn",
          "type": "uint256"
        },
        {
          "internalType": "uint256",
          "name": "amountOutMin",
          "type": "uint256"
        },
        {
          "internalType": "address[]",
          "name": "path",
          "type": "address[]"
        },
        {
          "internalType": "address",
          "name": "to",
          "type": "address"
        },
        {
          "internalType": "uint256",
          "name": "deadline",
          "type": "uint256"
        }
      ],
      "name": "swapExactTokensForETHSupportingFeeOnTransferTokens",
      "outputs": [],
      "stateMutability": "nonpayable",
      "type": "function"
    },
    {
      "inputs": [
        {
          "internalType": "uint256",
          "name": "amountIn",
          "type": "uint256"
        },
        {
          "internalType": "uint256",
          "name": "amountOutMin",
          "type": "uint256"
        },
        {
          "internalType": "address[]",
          "name": "path",
          "type": "address[]"
        },
        {
          "internalType": "address",
          "name": "to",
          "type": "address"
        },
        {
          "internalType": "uint256",
          "name": "deadline",
          "type": "uint256"
        }
      ],
      "name": "swapExactTokensForTokens",
      "outputs": [
        {
          "internalType": "uint256[]",
          "name": "amounts",
          "type": "uint256[]"
        }
      ],
      "stateMutability": "nonpayable",
      "type": "function"
    },
    {
      "inputs": [
        {
          "internalType": "uint256",
          "name": "amountIn",
          "type": "uint256"
        },
        {
          "internalType": "uint256",
          "name": "amountOutMin",
          "type": "uint256"
        },
        {
          "internalType": "address[]",
          "name": "path",
          "type": "address[]"
        },
        {
          "internalType": "address",
          "name": "to",
          "type": "address"
        },
        {
          "internalType": "uint256",
          "name": "deadline",
          "type": "uint256"
        }
      ],
      "name": "swapExactTokensForTokensSupportingFeeOnTransferTokens",
      "outputs": [],
      "stateMutability": "nonpayable",
      "type": "function"
    },
    {
      "inputs": [
        {
          "internalType": "uint256",
          "name": "amountOut",
          "type": "uint256"
        },
        {
          "internalType": "uint256",
          "name": "amountInMax",
          "type": "uint256"
        },
        {
          "internalType": "address[]",
          "name": "path",
          "type": "address[]"
        },
        {
          "internalType": "address",
          "name": "to",
          "type": "address"
        },
        {
          "internalType": "uint256",
          "name": "deadline",
          "type": "uint256"
        }
      ],
      "name": "swapTokensForExactETH",
      "outputs": [
        {
          "internalType": "uint256[]",
          "name": "amounts",
          "type": "uint256[]"
        }
      ],
      "stateMutability": "nonpayable",
      "type": "function"
    },
    {
      "inputs": [
        {
          "internalType": "uint256",
          "name": "amountOut",
          "type": "uint256"
        },
        {
          "internalType": "uint256",
          "name": "amountInMax",
          "type": "uint256"
        },
        {
          "internalType": "address[]",
          "name": "path",
          "type": "address[]"
        },
        {
          "internalType": "address",
          "name": "to",
          "type": "address"
        },
        {
          "internalType": "uint256",
          "name": "deadline",
          "type": "uint256"
        }
      ],
      "name": "swapTokensForExactTokens",
      "outputs": [
        {
          "internalType": "uint256[]",
          "name": "amounts",
          "type": "uint256[]"
        }
      ],
      "stateMutability": "nonpayable",
      "type": "function"
    },
    {
      "stateMutability": "payable",
      "type": "receive"
    }
  ],
  "bytecode": "0x60c06040523480156200001157600080fd5b506040516200473238038062004732833981016040819052620000349162000069565b6001600160a01b039182166080521660a052620000a1565b80516001600160a01b03811681146200006457600080fd5b919050565b600080604083850312156200007d57600080fd5b62000088836200004c565b915062000098602084016200004c565b90509250929050565b60805160a0516144f16200024160003960008181610195015281816103db01528181610598015281816105e70152818161068e015281816108b101528181610be801528181610d48015281816110b70152818161119a01528181611254015281816112e7015281816114050152818161149301528181611712015281816117d90152818161186a015281816118e70152818161195b01528181611e15015281816120150152818161206b0152818161209f015281816121340152818161228b0152818161239d015261242b0152600081816104820152818161070a015281816107dc01528181610997015281816109ce01528181610ac501528181610c6401528181610d2601528181610e5d01528181611362015281816114c501528181611612015281816116ae0152818161198d01528181611bc701528181611d8901528181611db701528181611df301528181611f1c01528181612049015281816123060152818161245d01528181612cf301528181612d26015281816132480152818161348001528181613743015281816137f5015261387b01526144f16000f3fe6080604052600436106101855760003560e01c806396ed28f9116100d1578063c45a01551161008a578063ded9382a11610064578063ded9382a146104e4578063e8e3370014610504578063f305d7191461053f578063fb3bdb411461055257600080fd5b8063c45a015514610470578063d06ca61f146104a4578063d52bb6f4146104c457600080fd5b806396ed28f914610391578063ad5c4648146103c9578063ad615dec146103fd578063af2979eb1461041d578063b6f9de951461043d578063baa2abde1461045057600080fd5b806352707d8c1161013e5780635c11d795116101185780635c11d7951461031e578063791ac9471461033e5780637ff36ab51461035e5780638803dbee1461037157600080fd5b806352707d8c146102b0578063571fd012146102de5780635b0d5984146102fe57600080fd5b806302751cec146101c957806318cbafe5146102035780631f00ca74146102305780632195995c1461025057806338ed1739146102705780634a25d94a1461029057600080fd5b366101c457336001600160a01b037f000000000000000000000000000000000000000000000000000000000000000016146101c2576101c2613a7b565b005b600080fd5b3480156101d557600080fd5b506101e96101e4366004613ab9565b610565565b604080519283526020830191909152015b60405180910390f35b34801561020f57600080fd5b5061022361021e366004613b5c565b610661565b6040516101fa9190613bcf565b34801561023c57600080fd5b5061022361024b366004613c29565b610990565b34801561025c57600080fd5b506101e961026b366004613d19565b6109c4565b34801561027c57600080fd5b5061022361028b366004613b5c565b610a9d565b34801561029c57600080fd5b506102236102ab366004613b5c565b610bbb565b3480156102bc57600080fd5b506102d06102cb366004613dc3565b610cf9565b6040519081526020016101fa565b3480156102ea57600080fd5b506102d06102f9366004613dc3565b610d10565b34801561030a57600080fd5b506102d0610319366004613df5565b610d1e565b34801561032a57600080fd5b506101c2610339366004613b5c565b610e0b565b34801561034a57600080fd5b506101c2610359366004613b5c565b61108c565b61022361036c366004613e8b565b6112c2565b34801561037d57600080fd5b5061022361038c366004613b5c565b6115ea565b34801561039d57600080fd5b506103b16103ac366004613ef2565b6116a7565b6040516001600160a01b0390911681526020016101fa565b3480156103d557600080fd5b506103b17f000000000000000000000000000000000000000000000000000000000000000081565b34801561040957600080fd5b506102d0610418366004613f2b565b6116d4565b34801561042957600080fd5b506102d0610438366004613ab9565b6116e9565b6101c261044b366004613e8b565b611847565b34801561045c57600080fd5b506101e961046b366004613f57565b611b9c565b34801561047c57600080fd5b506103b17f000000000000000000000000000000000000000000000000000000000000000081565b3480156104b057600080fd5b506102236104bf366004613c29565b611d82565b3480156104d057600080fd5b506101e96104df366004613ef2565b611daf565b3480156104f057600080fd5b506101e96104ff366004613df5565b611de9565b34801561051057600080fd5b5061052461051f366004613fc9565b611edc565b604080519384526020840192909252908201526060016101fa565b61052461054d366004613ab9565b611fe9565b610223610560366004613e8b565b612266565b60008082428110156105925760405162461bcd60e51b815260040161058990614045565b60405180910390fd5b6105c1897f00000000000000000000000000000000000000000000000000000000000000008a8a8a308a611b9c565b90935091506105d18986856125c4565b604051632e1a7d4d60e01b8152600481018390527f00000000000000000000000000000000000000000000000000000000000000006001600160a01b031690632e1a7d4d90602401600060405180830381600087803b15801561063357600080fd5b505af1158015610647573d6000803e3d6000fd5b5050505061065585836126f5565b50965096945050505050565b606081428110156106845760405162461bcd60e51b815260040161058990614045565b6001600160a01b037f00000000000000000000000000000000000000000000000000000000000000001686866106bb600182614092565b8181106106ca576106ca6140a9565b90506020020160208101906106df91906140bf565b6001600160a01b0316146107055760405162461bcd60e51b8152600401610589906140dc565b6107637f0000000000000000000000000000000000000000000000000000000000000000898888808060200260200160405190810160405280939291908181526020018383602002808284376000920191909152506127d492505050565b91508682600184516107759190614092565b81518110610785576107856140a9565b602002602001015110156107ab5760405162461bcd60e51b815260040161058990614113565b610870868660008181106107c1576107c16140a9565b90506020020160208101906107d691906140bf565b336108507f00000000000000000000000000000000000000000000000000000000000000008a8a600081811061080e5761080e6140a9565b905060200201602081019061082391906140bf565b8b8b6001818110610836576108366140a9565b905060200201602081019061084b91906140bf565b6129f9565b85600081518110610863576108636140a9565b6020026020010151612ad2565b6108af82878780806020026020016040519081016040528093929190818152602001838360200280828437600092019190915250309250612c10915050565b7f00000000000000000000000000000000000000000000000000000000000000006001600160a01b0316632e1a7d4d83600185516108ed9190614092565b815181106108fd576108fd6140a9565b60200260200101516040518263ffffffff1660e01b815260040161092391815260200190565b600060405180830381600087803b15801561093d57600080fd5b505af1158015610951573d6000803e3d6000fd5b505050506109858483600185516109689190614092565b81518110610978576109786140a9565b60200260200101516126f5565b509695505050505050565b60606109bd7f00000000000000000000000000000000000000000000000000000000000000008484612dfb565b9392505050565b60008060006109f47f00000000000000000000000000000000000000000000000000000000000000008f8f6129f9565b9050600087610a03578c610a07565b6000195b60405163d505accf60e01b81529091506001600160a01b0383169063d505accf90610a42903390309086908f908e908e908e9060040161415e565b600060405180830381600087803b158015610a5c57600080fd5b505af1158015610a70573d6000803e3d6000fd5b50505050610a838f8f8f8f8f8f8f611b9c565b809450819550505050509b509b9950505050505050505050565b60608142811015610ac05760405162461bcd60e51b815260040161058990614045565b610b1e7f0000000000000000000000000000000000000000000000000000000000000000898888808060200260200160405190810160405280939291908181526020018383602002808284376000920191909152506127d492505050565b9150868260018451610b309190614092565b81518110610b4057610b406140a9565b60200260200101511015610b665760405162461bcd60e51b815260040161058990614113565b610b7c868660008181106107c1576107c16140a9565b61098582878780806020026020016040519081016040528093929190818152602001838360200280828437600092019190915250899250612c10915050565b60608142811015610bde5760405162461bcd60e51b815260040161058990614045565b6001600160a01b037f0000000000000000000000000000000000000000000000000000000000000000168686610c15600182614092565b818110610c2457610c246140a9565b9050602002016020810190610c3991906140bf565b6001600160a01b031614610c5f5760405162461bcd60e51b8152600401610589906140dc565b610cbd7f000000000000000000000000000000000000000000000000000000000000000089888880806020026020016040519081016040528093929190818152602001838360200280828437600092019190915250612dfb92505050565b91508682600081518110610cd357610cd36140a9565b602002602001015111156107ab5760405162461bcd60e51b81526004016105899061419f565b6000610d0785858585612ff9565b95945050505050565b6000610d07858585856130e3565b600080610d6c7f00000000000000000000000000000000000000000000000000000000000000008d7f00000000000000000000000000000000000000000000000000000000000000006129f9565b9050600086610d7b578b610d7f565b6000195b60405163d505accf60e01b81529091506001600160a01b0383169063d505accf90610dba903390309086908e908d908d908d9060040161415e565b600060405180830381600087803b158015610dd457600080fd5b505af1158015610de8573d6000803e3d6000fd5b50505050610dfa8d8d8d8d8d8d6116e9565b9d9c50505050505050505050505050565b8042811015610e2c5760405162461bcd60e51b815260040161058990614045565b610ebd85856000818110610e4257610e426140a9565b9050602002016020810190610e5791906140bf565b33610eb77f000000000000000000000000000000000000000000000000000000000000000089896000818110610e8f57610e8f6140a9565b9050602002016020810190610ea491906140bf565b8a8a6001818110610836576108366140a9565b8a612ad2565b60008585610ecc600182614092565b818110610edb57610edb6140a9565b9050602002016020810190610ef091906140bf565b6040516370a0823160e01b81526001600160a01b03868116600483015291909116906370a082319060240160206040518083038186803b158015610f3357600080fd5b505afa158015610f47573d6000803e3d6000fd5b505050506040513d601f19601f82011682018060405250810190610f6b91906141e6565b9050610fab8686808060200260200160405190810160405280939291908181526020018383602002808284376000920191909152508892506131d3915050565b86818787610fba600182614092565b818110610fc957610fc96140a9565b9050602002016020810190610fde91906140bf565b6040516370a0823160e01b81526001600160a01b03888116600483015291909116906370a08231906024015b60206040518083038186803b15801561102257600080fd5b505afa158015611036573d6000803e3d6000fd5b505050506040513d601f19601f8201168201806040525081019061105a91906141e6565b6110649190614092565b10156110825760405162461bcd60e51b815260040161058990614113565b5050505050505050565b80428110156110ad5760405162461bcd60e51b815260040161058990614045565b6001600160a01b037f00000000000000000000000000000000000000000000000000000000000000001685856110e4600182614092565b8181106110f3576110f36140a9565b905060200201602081019061110891906140bf565b6001600160a01b03161461112e5760405162461bcd60e51b8152600401610589906140dc565b61114485856000818110610e4257610e426140a9565b6111828585808060200260200160405190810160405280939291908181526020018383602002808284376000920191909152503092506131d3915050565b6040516370a0823160e01b81523060048201526000907f00000000000000000000000000000000000000000000000000000000000000006001600160a01b0316906370a082319060240160206040518083038186803b1580156111e457600080fd5b505afa1580156111f8573d6000803e3d6000fd5b505050506040513d601f19601f8201168201806040525081019061121c91906141e6565b90508681101561123e5760405162461bcd60e51b815260040161058990614113565b604051632e1a7d4d60e01b8152600481018290527f00000000000000000000000000000000000000000000000000000000000000006001600160a01b031690632e1a7d4d90602401600060405180830381600087803b1580156112a057600080fd5b505af11580156112b4573d6000803e3d6000fd5b5050505061108284826126f5565b606081428110156112e55760405162461bcd60e51b815260040161058990614045565b7f00000000000000000000000000000000000000000000000000000000000000006001600160a01b031686866000818110611322576113226140a9565b905060200201602081019061133791906140bf565b6001600160a01b03161461135d5760405162461bcd60e51b8152600401610589906140dc565b6113bb7f0000000000000000000000000000000000000000000000000000000000000000348888808060200260200160405190810160405280939291908181526020018383602002808284376000920191909152506127d492505050565b91508682600184516113cd9190614092565b815181106113dd576113dd6140a9565b602002602001015110156114035760405162461bcd60e51b815260040161058990614113565b7f00000000000000000000000000000000000000000000000000000000000000006001600160a01b031663d0e30db083600081518110611445576114456140a9565b60200260200101516040518263ffffffff1660e01b81526004016000604051808303818588803b15801561147857600080fd5b505af115801561148c573d6000803e3d6000fd5b50505050507f00000000000000000000000000000000000000000000000000000000000000006001600160a01b031663a9059cbb6114f77f000000000000000000000000000000000000000000000000000000000000000089896000818110610e8f57610e8f6140a9565b8460008151811061150a5761150a6140a9565b60200260200101516040518363ffffffff1660e01b81526004016115439291906001600160a01b03929092168252602082015260400190565b602060405180830381600087803b15801561155d57600080fd5b505af1158015611571573d6000803e3d6000fd5b505050506040513d601f19601f8201168201806040525081019061159591906141ff565b6115a1576115a1613a7b565b6115e082878780806020026020016040519081016040528093929190818152602001838360200280828437600092019190915250899250612c10915050565b5095945050505050565b6060814281101561160d5760405162461bcd60e51b815260040161058990614045565b61166b7f000000000000000000000000000000000000000000000000000000000000000089888880806020026020016040519081016040528093929190818152602001838360200280828437600092019190915250612dfb92505050565b91508682600081518110611681576116816140a9565b60200260200101511115610b665760405162461bcd60e51b81526004016105899061419f565b60006109bd7f000000000000000000000000000000000000000000000000000000000000000084846129f9565b60006116e184848461353c565b949350505050565b6000814281101561170c5760405162461bcd60e51b815260040161058990614045565b61173b887f00000000000000000000000000000000000000000000000000000000000000008989893089611b9c565b6040516370a0823160e01b81523060048201529093506117c39150899086906001600160a01b038316906370a082319060240160206040518083038186803b15801561178657600080fd5b505afa15801561179a573d6000803e3d6000fd5b505050506040513d601f19601f820116820180604052508101906117be91906141e6565b6125c4565b604051632e1a7d4d60e01b8152600481018390527f00000000000000000000000000000000000000000000000000000000000000006001600160a01b031690632e1a7d4d90602401600060405180830381600087803b15801561182557600080fd5b505af1158015611839573d6000803e3d6000fd5b5050505061098584836126f5565b80428110156118685760405162461bcd60e51b815260040161058990614045565b7f00000000000000000000000000000000000000000000000000000000000000006001600160a01b0316858560008181106118a5576118a56140a9565b90506020020160208101906118ba91906140bf565b6001600160a01b0316146118e05760405162461bcd60e51b8152600401610589906140dc565b60003490507f00000000000000000000000000000000000000000000000000000000000000006001600160a01b031663d0e30db0826040518263ffffffff1660e01b81526004016000604051808303818588803b15801561194057600080fd5b505af1158015611954573d6000803e3d6000fd5b50505050507f00000000000000000000000000000000000000000000000000000000000000006001600160a01b031663a9059cbb6119bf7f000000000000000000000000000000000000000000000000000000000000000089896000818110610e8f57610e8f6140a9565b6040516001600160e01b031960e084901b1681526001600160a01b03909116600482015260248101849052604401602060405180830381600087803b158015611a0757600080fd5b505af1158015611a1b573d6000803e3d6000fd5b505050506040513d601f19601f82011682018060405250810190611a3f91906141ff565b611a4b57611a4b613a7b565b60008686611a5a600182614092565b818110611a6957611a696140a9565b9050602002016020810190611a7e91906140bf565b6040516370a0823160e01b81526001600160a01b03878116600483015291909116906370a082319060240160206040518083038186803b158015611ac157600080fd5b505afa158015611ad5573d6000803e3d6000fd5b505050506040513d601f19601f82011682018060405250810190611af991906141e6565b9050611b398787808060200260200160405190810160405280939291908181526020018383602002808284376000920191909152508992506131d3915050565b87818888611b48600182614092565b818110611b5757611b576140a9565b9050602002016020810190611b6c91906140bf565b6040516370a0823160e01b81526001600160a01b03898116600483015291909116906370a082319060240161100a565b6000808242811015611bc05760405162461bcd60e51b815260040161058990614045565b6000611bed7f00000000000000000000000000000000000000000000000000000000000000008c8c6129f9565b6040516323b872dd60e01b81523360048201526001600160a01b03821660248201819052604482018c90529192506323b872dd90606401602060405180830381600087803b158015611c3e57600080fd5b505af1158015611c52573d6000803e3d6000fd5b505050506040513d601f19601f82011682018060405250810190611c7691906141ff565b5060405163226bf2d160e21b81526001600160a01b03878116600483015260009182918416906389afcb44906024016040805180830381600087803b158015611cbe57600080fd5b505af1158015611cd2573d6000803e3d6000fd5b505050506040513d601f19601f82011682018060405250810190611cf6919061421c565b915091506000611d068e8e6135dc565b509050806001600160a01b03168e6001600160a01b031614611d29578183611d2c565b82825b90975095508a871015611d515760405162461bcd60e51b815260040161058990614240565b89861015611d715760405162461bcd60e51b815260040161058990614286565b505050505097509795505050505050565b60606109bd7f000000000000000000000000000000000000000000000000000000000000000084846127d4565b600080611ddd7f000000000000000000000000000000000000000000000000000000000000000085856136cd565b915091505b9250929050565b6000806000611e397f00000000000000000000000000000000000000000000000000000000000000008e7f00000000000000000000000000000000000000000000000000000000000000006129f9565b9050600087611e48578c611e4c565b6000195b60405163d505accf60e01b81529091506001600160a01b0383169063d505accf90611e87903390309086908f908e908e908e9060040161415e565b600060405180830381600087803b158015611ea157600080fd5b505af1158015611eb5573d6000803e3d6000fd5b50505050611ec78e8e8e8e8e8e610565565b909f909e509c50505050505050505050505050565b60008060008342811015611f025760405162461bcd60e51b815260040161058990614045565b611f108c8c8c8c8c8c613715565b90945092506000611f427f00000000000000000000000000000000000000000000000000000000000000008e8e6129f9565b9050611f508d338388612ad2565b611f5c8c338387612ad2565b6040516335313c2160e11b81526001600160a01b038881166004830152821690636a62784290602401602060405180830381600087803b158015611f9f57600080fd5b505af1158015611fb3573d6000803e3d6000fd5b505050506040513d601f19601f82011682018060405250810190611fd791906141e6565b92505050985098509895505050505050565b6000806000834281101561200f5760405162461bcd60e51b815260040161058990614045565b61203d8a7f00000000000000000000000000000000000000000000000000000000000000008b348c8c613715565b9094509250600061208f7f00000000000000000000000000000000000000000000000000000000000000008c7f00000000000000000000000000000000000000000000000000000000000000006129f9565b905061209d8b338388612ad2565b7f00000000000000000000000000000000000000000000000000000000000000006001600160a01b031663d0e30db0856040518263ffffffff1660e01b81526004016000604051808303818588803b1580156120f857600080fd5b505af115801561210c573d6000803e3d6000fd5b505060405163a9059cbb60e01b81526001600160a01b038581166004830152602482018990527f000000000000000000000000000000000000000000000000000000000000000016935063a9059cbb92506044019050602060405180830381600087803b15801561217c57600080fd5b505af1158015612190573d6000803e3d6000fd5b505050506040513d601f19601f820116820180604052508101906121b491906141ff565b6121c0576121c0613a7b565b6040516335313c2160e11b81526001600160a01b038881166004830152821690636a62784290602401602060405180830381600087803b15801561220357600080fd5b505af1158015612217573d6000803e3d6000fd5b505050506040513d601f19601f8201168201806040525081019061223b91906141e6565b92508334111561225857612258336122538634614092565b6126f5565b505096509650969350505050565b606081428110156122895760405162461bcd60e51b815260040161058990614045565b7f00000000000000000000000000000000000000000000000000000000000000006001600160a01b0316868660008181106122c6576122c66140a9565b90506020020160208101906122db91906140bf565b6001600160a01b0316146123015760405162461bcd60e51b8152600401610589906140dc565b61235f7f000000000000000000000000000000000000000000000000000000000000000088888880806020026020016040519081016040528093929190818152602001838360200280828437600092019190915250612dfb92505050565b91503482600081518110612375576123756140a9565b6020026020010151111561239b5760405162461bcd60e51b81526004016105899061419f565b7f00000000000000000000000000000000000000000000000000000000000000006001600160a01b031663d0e30db0836000815181106123dd576123dd6140a9565b60200260200101516040518263ffffffff1660e01b81526004016000604051808303818588803b15801561241057600080fd5b505af1158015612424573d6000803e3d6000fd5b50505050507f00000000000000000000000000000000000000000000000000000000000000006001600160a01b031663a9059cbb61248f7f000000000000000000000000000000000000000000000000000000000000000089896000818110610e8f57610e8f6140a9565b846000815181106124a2576124a26140a9565b60200260200101516040518363ffffffff1660e01b81526004016124db9291906001600160a01b03929092168252602082015260400190565b602060405180830381600087803b1580156124f557600080fd5b505af1158015612509573d6000803e3d6000fd5b505050506040513d601f19601f8201168201806040525081019061252d91906141ff565b61253957612539613a7b565b61257882878780806020026020016040519081016040528093929190818152602001838360200280828437600092019190915250899250612c10915050565b8160008151811061258b5761258b6140a9565b60200260200101513411156115e0576115e033836000815181106125b1576125b16140a9565b6020026020010151346122539190614092565b604080516001600160a01b038481166024830152604480830185905283518084039091018152606490920183526020820180516001600160e01b031663a9059cbb60e01b179052915160009283929087169161262091906142f8565b6000604051808303816000865af19150503d806000811461265d576040519150601f19603f3d011682016040523d82523d6000602084013e612662565b606091505b509150915081801561268c57508051158061268c57508080602001905181019061268c91906141ff565b6126ee5760405162461bcd60e51b815260206004820152602d60248201527f5472616e7366657248656c7065723a3a736166655472616e736665723a20747260448201526c185b9cd9995c8819985a5b1959609a1b6064820152608401610589565b5050505050565b604080516000808252602082019092526001600160a01b03841690839060405161271f91906142f8565b60006040518083038185875af1925050503d806000811461275c576040519150601f19603f3d011682016040523d82523d6000602084013e612761565b606091505b50509050806127cf5760405162461bcd60e51b815260206004820152603460248201527f5472616e7366657248656c7065723a3a736166655472616e736665724554483a60448201527308115512081d1c985b9cd9995c8819985a5b195960621b6064820152608401610589565b505050565b60606002825110156128285760405162461bcd60e51b815260206004820152601e60248201527f556e697377617056324c6962726172793a20494e56414c49445f5041544800006044820152606401610589565b815167ffffffffffffffff81111561284257612842613c13565b60405190808252806020026020018201604052801561286b578160200160208202803683370190505b5090508281600081518110612882576128826140a9565b60200260200101818152505060005b6001835161289f9190614092565b8110156129f15760006128f08483815181106128bd576128bd6140a9565b6020026020010151858460016128d39190614314565b815181106128e3576128e36140a9565b60200260200101516135dc565b509050600061293e8786858151811061290b5761290b6140a9565b6020026020010151878660016129219190614314565b81518110612931576129316140a9565b60200260200101516129f9565b905060008061297b83856001600160a01b0316898881518110612963576129636140a9565b60200260200101516001600160a01b03161415613958565b91509150600061298a84613a02565b90506129b18787815181106129a1576129a16140a9565b6020026020010151848484612ff9565b876129bd886001614314565b815181106129cd576129cd6140a9565b602002602001018181525050505050505080806129e99061432c565b915050612891565b509392505050565b6000806000612a0885856135dc565b6040516bffffffffffffffffffffffff19606084811b8216602084015283901b1660348201529193509150869060480160405160208183030381529060405280519060200120604051602001612ab09291906001600160f81b0319815260609290921b6bffffffffffffffffffffffff1916600183015260158201527f417b3c20dc57293e49b7e7a9375db8323a10e45420600e03b84515a0554e2291603582015260550190565b60408051601f1981840301815291905280516020909101209695505050505050565b604080516001600160a01b0385811660248301528481166044830152606480830185905283518084039091018152608490920183526020820180516001600160e01b03166323b872dd60e01b1790529151600092839290881691612b3691906142f8565b6000604051808303816000865af19150503d8060008114612b73576040519150601f19603f3d011682016040523d82523d6000602084013e612b78565b606091505b5091509150818015612ba2575080511580612ba2575080806020019051810190612ba291906141ff565b612c085760405162461bcd60e51b815260206004820152603160248201527f5472616e7366657248656c7065723a3a7472616e7366657246726f6d3a207472604482015270185b9cd9995c919c9bdb4819985a5b1959607a1b6064820152608401610589565b505050505050565b60005b60018351612c219190614092565b811015612df557600080848381518110612c3d57612c3d6140a9565b602002602001015185846001612c539190614314565b81518110612c6357612c636140a9565b6020026020010151915091506000612c7b83836135dc565b509050600087612c8c866001614314565b81518110612c9c57612c9c6140a9565b60200260200101519050600080836001600160a01b0316866001600160a01b031614612cca57826000612cce565b6000835b91509150600060028a51612ce29190614092565b8810612cee5788612d1f565b612d1f7f0000000000000000000000000000000000000000000000000000000000000000878c6129218c6002614314565b9050612d4c7f000000000000000000000000000000000000000000000000000000000000000088886129f9565b6001600160a01b031663022c0d9f84848460006040519080825280601f01601f191660200182016040528015612d89576020820181803683370190505b506040518563ffffffff1660e01b8152600401612da99493929190614347565b600060405180830381600087803b158015612dc357600080fd5b505af1158015612dd7573d6000803e3d6000fd5b50505050505050505050508080612ded9061432c565b915050612c13565b50505050565b6060600282511015612e4f5760405162461bcd60e51b815260206004820152601e60248201527f556e697377617056324c6962726172793a20494e56414c49445f5041544800006044820152606401610589565b815167ffffffffffffffff811115612e6957612e69613c13565b604051908082528060200260200182016040528015612e92578160200160208202803683370190505b509050828160018351612ea59190614092565b81518110612eb557612eb56140a9565b602002602001018181525050600060018351612ed19190614092565b90505b80156129f1576000612f1584612eeb600185614092565b81518110612efb57612efb6140a9565b60200260200101518584815181106128e3576128e36140a9565b5090506000612f548786612f2a600187614092565b81518110612f3a57612f3a6140a9565b6020026020010151878681518110612931576129316140a9565b9050600080612f83836001600160a01b03861689612f7360018a614092565b81518110612963576129636140a9565b915091506000612f9284613a02565b9050612fb9878781518110612fa957612fa96140a9565b60200260200101518484846130e3565b87612fc5600189614092565b81518110612fd557612fd56140a9565b60200260200101818152505050505050508080612ff190614397565b915050612ed4565b600080851161305e5760405162461bcd60e51b815260206004820152602b60248201527f556e697377617056324c6962726172793a20494e53554646494349454e545f4960448201526a1394155517d05353d5539560aa1b6064820152608401610589565b60008411801561306e5750600083115b61308a5760405162461bcd60e51b8152600401610589906143ae565b600061309883612710614092565b6130a290876143f6565b905060006130b085836143f6565b90506000826130c1886127106143f6565b6130cb9190614314565b90506130d78183614415565b98975050505050505050565b60008085116131495760405162461bcd60e51b815260206004820152602c60248201527f556e697377617056324c6962726172793a20494e53554646494349454e545f4f60448201526b155514155517d05353d5539560a21b6064820152608401610589565b6000841180156131595750600083115b6131755760405162461bcd60e51b8152600401610589906143ae565b600061318186866143f6565b61318d906127106143f6565b9050600061319d84612710614092565b6131a78887614092565b6131b191906143f6565b90506131bd8183614415565b6131c8906001614314565b979650505050505050565b60005b600183516131e49190614092565b8110156127cf57600080848381518110613200576132006140a9565b6020026020010151858460016132169190614314565b81518110613226576132266140a9565b602002602001015191509150600061323e83836135dc565b509050600061326e7f000000000000000000000000000000000000000000000000000000000000000085856129f9565b9050600080600080846001600160a01b0316630902f1ac6040518163ffffffff1660e01b815260040160606040518083038186803b1580156132af57600080fd5b505afa1580156132c3573d6000803e3d6000fd5b505050506040513d601f19601f820116820180604052508101906132e7919061444e565b506001600160701b031691506001600160701b03169150600080876001600160a01b03168a6001600160a01b031614613321578284613324565b83835b6040516370a0823160e01b81526001600160a01b038a8116600483015292945090925083918c16906370a082319060240160206040518083038186803b15801561336d57600080fd5b505afa158015613381573d6000803e3d6000fd5b505050506040513d601f19601f820116820180604052508101906133a591906141e6565b6133af9190614092565b955061342d8683838a6001600160a01b03166324a9d8536040518163ffffffff1660e01b815260040160206040518083038186803b1580156133f057600080fd5b505afa158015613404573d6000803e3d6000fd5b505050506040513d601f19601f8201168201806040525081019061342891906141e6565b612ff9565b945050505050600080856001600160a01b0316886001600160a01b0316146134575782600061345b565b6000835b91509150600060028c5161346f9190614092565b8a1061347b578a6134ac565b6134ac7f0000000000000000000000000000000000000000000000000000000000000000898e6129218e6002614314565b6040805160008152602081019182905263022c0d9f60e01b9091529091506001600160a01b0387169063022c0d9f906134ee9086908690869060248101614347565b600060405180830381600087803b15801561350857600080fd5b505af115801561351c573d6000803e3d6000fd5b5050505050505050505050505080806135349061432c565b9150506131d6565b600080841161359b5760405162461bcd60e51b815260206004820152602560248201527f556e697377617056324c6962726172793a20494e53554646494349454e545f416044820152641353d5539560da1b6064820152608401610589565b6000831180156135ab5750600082115b6135c75760405162461bcd60e51b8152600401610589906143ae565b826135d283866143f6565b6116e19190614415565b600080826001600160a01b0316846001600160a01b0316141561364f5760405162461bcd60e51b815260206004820152602560248201527f556e697377617056324c6962726172793a204944454e544943414c5f41444452604482015264455353455360d81b6064820152608401610589565b826001600160a01b0316846001600160a01b03161061366f578284613672565b83835b90925090506001600160a01b038216611de25760405162461bcd60e51b815260206004820152601e60248201527f556e697377617056324c6962726172793a205a45524f5f4144445245535300006044820152606401610589565b60008060006136dc85856135dc565b5090506137086136ed8787876129f9565b826001600160a01b0316876001600160a01b03161415613958565b9250925050935093915050565b60405163e6a4390560e01b81526001600160a01b0387811660048301528681166024830152600091829182917f00000000000000000000000000000000000000000000000000000000000000009091169063e6a439059060440160206040518083038186803b15801561378757600080fd5b505afa15801561379b573d6000803e3d6000fd5b505050506040513d601f19601f820116820180604052508101906137bf919061449e565b6001600160a01b03161415613873576040516364e329cb60e11b81526001600160a01b03898116600483015288811660248301527f0000000000000000000000000000000000000000000000000000000000000000169063c9c6539690604401602060405180830381600087803b15801561383957600080fd5b505af115801561384d573d6000803e3d6000fd5b505050506040513d601f19601f82011682018060405250810190613871919061449e565b505b6000806138a17f00000000000000000000000000000000000000000000000000000000000000008b8b6136cd565b915091508160001480156138b3575080155b156138c35787935086925061394b565b60006138d089848461353c565b905087811161390457858110156138f95760405162461bcd60e51b815260040161058990614286565b889450925082613949565b600061391189848661353c565b90508981111561392357613923613a7b565b878110156139435760405162461bcd60e51b815260040161058990614240565b94508793505b505b5050965096945050505050565b600080600080856001600160a01b0316630902f1ac6040518163ffffffff1660e01b815260040160606040518083038186803b15801561399757600080fd5b505afa1580156139ab573d6000803e3d6000fd5b505050506040513d601f19601f820116820180604052508101906139cf919061444e565b506001600160701b031691506001600160701b03169150846139f25781816139f5565b80825b9097909650945050505050565b6000816001600160a01b03166324a9d8536040518163ffffffff1660e01b815260040160206040518083038186803b158015613a3d57600080fd5b505afa158015613a51573d6000803e3d6000fd5b505050506040513d601f19601f82011682018060405250810190613a7591906141e6565b92915050565b634e487b7160e01b600052600160045260246000fd5b6001600160a01b0381168114613aa657600080fd5b50565b8035613ab481613a91565b919050565b60008060008060008060c08789031215613ad257600080fd5b8635613add81613a91565b95506020870135945060408701359350606087013592506080870135613b0281613a91565b8092505060a087013590509295509295509295565b60008083601f840112613b2957600080fd5b50813567ffffffffffffffff811115613b4157600080fd5b6020830191508360208260051b8501011115611de257600080fd5b60008060008060008060a08789031215613b7557600080fd5b8635955060208701359450604087013567ffffffffffffffff811115613b9a57600080fd5b613ba689828a01613b17565b9095509350506060870135613bba81613a91565b80925050608087013590509295509295509295565b6020808252825182820181905260009190848201906040850190845b81811015613c0757835183529284019291840191600101613beb565b50909695505050505050565b634e487b7160e01b600052604160045260246000fd5b60008060408385031215613c3c57600080fd5b8235915060208084013567ffffffffffffffff80821115613c5c57600080fd5b818601915086601f830112613c7057600080fd5b813581811115613c8257613c82613c13565b8060051b604051601f19603f83011681018181108582111715613ca757613ca7613c13565b604052918252848201925083810185019189831115613cc557600080fd5b938501935b82851015613cea57613cdb85613aa9565b84529385019392850192613cca565b8096505050505050509250929050565b8015158114613aa657600080fd5b803560ff81168114613ab457600080fd5b60008060008060008060008060008060006101608c8e031215613d3b57600080fd5b8b35613d4681613a91565b9a5060208c0135613d5681613a91565b995060408c0135985060608c0135975060808c0135965060a08c0135613d7b81613a91565b955060c08c0135945060e08c0135613d9281613cfa565b9350613da16101008d01613d08565b92506101208c013591506101408c013590509295989b509295989b9093969950565b60008060008060808587031215613dd957600080fd5b5050823594602084013594506040840135936060013592509050565b6000806000806000806000806000806101408b8d031215613e1557600080fd5b8a35613e2081613a91565b995060208b0135985060408b0135975060608b0135965060808b0135613e4581613a91565b955060a08b0135945060c08b0135613e5c81613cfa565b9350613e6a60e08c01613d08565b92506101008b013591506101208b013590509295989b9194979a5092959850565b600080600080600060808688031215613ea357600080fd5b85359450602086013567ffffffffffffffff811115613ec157600080fd5b613ecd88828901613b17565b9095509350506040860135613ee181613a91565b949793965091946060013592915050565b60008060408385031215613f0557600080fd5b8235613f1081613a91565b91506020830135613f2081613a91565b809150509250929050565b600080600060608486031215613f4057600080fd5b505081359360208301359350604090920135919050565b600080600080600080600060e0888a031215613f7257600080fd5b8735613f7d81613a91565b96506020880135613f8d81613a91565b955060408801359450606088013593506080880135925060a0880135613fb281613a91565b8092505060c0880135905092959891949750929550565b600080600080600080600080610100898b031215613fe657600080fd5b8835613ff181613a91565b9750602089013561400181613a91565b965060408901359550606089013594506080890135935060a0890135925060c089013561402d81613a91565b8092505060e089013590509295985092959890939650565b60208082526018908201527f556e69737761705632526f757465723a20455850495245440000000000000000604082015260600190565b634e487b7160e01b600052601160045260246000fd5b6000828210156140a4576140a461407c565b500390565b634e487b7160e01b600052603260045260246000fd5b6000602082840312156140d157600080fd5b81356109bd81613a91565b6020808252601d908201527f556e69737761705632526f757465723a20494e56414c49445f50415448000000604082015260600190565b6020808252602b908201527f556e69737761705632526f757465723a20494e53554646494349454e545f4f5560408201526a1514155517d05353d5539560aa1b606082015260800190565b6001600160a01b0397881681529590961660208601526040850193909352606084019190915260ff16608083015260a082015260c081019190915260e00190565b60208082526027908201527f556e69737761705632526f757465723a204558434553534956455f494e50555460408201526617d05353d5539560ca1b606082015260800190565b6000602082840312156141f857600080fd5b5051919050565b60006020828403121561421157600080fd5b81516109bd81613cfa565b6000806040838503121561422f57600080fd5b505080516020909101519092909150565b60208082526026908201527f556e69737761705632526f757465723a20494e53554646494349454e545f415f604082015265105353d5539560d21b606082015260800190565b60208082526026908201527f556e69737761705632526f757465723a20494e53554646494349454e545f425f604082015265105353d5539560d21b606082015260800190565b60005b838110156142e75781810151838201526020016142cf565b83811115612df55750506000910152565b6000825161430a8184602087016142cc565b9190910192915050565b600082198211156143275761432761407c565b500190565b60006000198214156143405761434061407c565b5060010190565b84815283602082015260018060a01b038316604082015260806060820152600082518060808401526143808160a08501602087016142cc565b601f01601f19169190910160a00195945050505050565b6000816143a6576143a661407c565b506000190190565b60208082526028908201527f556e697377617056324c6962726172793a20494e53554646494349454e545f4c604082015267495155494449545960c01b606082015260800190565b60008160001904831182151516156144105761441061407c565b500290565b60008261443257634e487b7160e01b600052601260045260246000fd5b500490565b80516001600160701b0381168114613ab457600080fd5b60008060006060848603121561446357600080fd5b61446c84614437565b925061447a60208501614437565b9150604084015163ffffffff8116811461449357600080fd5b809150509250925092565b6000602082840312156144b057600080fd5b81516109bd81613a9156fea26469706673582212206c3c9bc6ee7a838b53a9c67bba744ebbd0cc03777becd5cf3a36b6469424995f64736f6c63430008090033",
  "linkReferences": {},
  "deployedLinkReferences": {}
}