{
  "_format": "hh-sol-artifact-1",
  "contractName": "UniswapV2Factory",
  "sourceName": "contracts/common/UniswapV2Factory.sol",
  "abi": [
    {
      "inputs": [
        {
          "internalType": "address",
          "name": "_feeToSetter",
          "type": "address"
        }
      ],
      "stateMutability": "nonpayable",
      "type": "constructor"
    },
    {
      "anonymous": false,
      "inputs": [
        {
          "indexed": true,
          "internalType": "address",
          "name": "token0",
          "type": "address"
        },
        {
          "indexed": true,
          "internalType": "address",
          "name": "token1",
          "type": "address"
        },
        {
          "indexed": false,
          "internalType": "address",
          "name": "pair",
          "type": "address"
        },
        {
          "indexed": false,
          "internalType": "uint256",
          "name": "",
          "type": "uint256"
        }
      ],
      "name": "PairCreated",
      "type": "event"
    },
    {
      "inputs": [
        {
          "internalType": "uint256",
          "name": "",
          "type": "uint256"
        }
      ],
      "name": "allPairs",
      "outputs": [
        {
          "internalType": "address",
          "name": "",
          "type": "address"
        }
      ],
      "stateMutability": "view",
      "type": "function"
    },
    {
      "inputs": [],
      "name": "allPairsLength",
      "outputs": [
        {
          "internalType": "uint256",
          "name": "",
          "type": "uint256"
        }
      ],
      "stateMutability": "view",
      "type": "function"
    },
    {
      "inputs": [
        {
          "internalType": "address",
          "name": "tokenA",
          "type": "address"
        },
        {
          "internalType": "address",
          "name": "tokenB",
          "type": "address"
        },
        {
          "internalType": "uint256",
          "name": "_feeBps",
          "type": "uint256"
        },
        {
          "internalType": "uint256",
          "name": "_protocolFeeDivider",
          "type": "uint256"
        }
      ],
      "name": "changeFee",
      "outputs": [],
      "stateMutability": "nonpayable",
      "type": "function"
    },
    {
      "inputs": [
        {
          "internalType": "address",
          "name": "tokenA",
          "type": "address"
        },
        {
          "internalType": "address",
          "name": "tokenB",
          "type": "address"
        }
      ],
      "name": "createPair",
      "outputs": [
        {
          "internalType": "address",
          "name": "pair",
          "type": "address"
        }
      ],
      "stateMutability": "nonpayable",
      "type": "function"
    },
    {
      "inputs": [],
      "name": "feeTo",
      "outputs": [
        {
          "internalType": "address",
          "name": "",
          "type": "address"
        }
      ],
      "stateMutability": "view",
      "type": "function"
    },
    {
      "inputs": [],
      "name": "feeToSetter",
      "outputs": [
        {
          "internalType": "address",
          "name": "",
          "type": "address"
        }
      ],
      "stateMutability": "view",
      "type": "function"
    },
    {
      "inputs": [
        {
          "internalType": "address",
          "name": "",
          "type": "address"
        },
        {
          "internalType": "address",
          "name": "",
          "type": "address"
        }
      ],
      "name": "getPair",
      "outputs": [
        {
          "internalType": "address",
          "name": "",
          "type": "address"
        }
      ],
      "stateMutability": "view",
      "type": "function"
    },
    {
      "inputs": [
        {
          "internalType": "address",
          "name": "tokenA",
          "type": "address"
        },
        {
          "internalType": "address",
          "name": "tokenB",
          "type": "address"
        }
      ],
      "name": "pause",
      "outputs": [],
      "stateMutability": "nonpayable",
      "type": "function"
    },
    {
      "inputs": [
        {
          "internalType": "address",
          "name": "_feeTo",
          "type": "address"
        }
      ],
      "name": "setFeeTo",
      "outputs": [],
      "stateMutability": "nonpayable",
      "type": "function"
    },
    {
      "inputs": [
        {
          "internalType": "address",
          "name": "_feeToSetter",
          "type": "address"
        }
      ],
      "name": "setFeeToSetter",
      "outputs": [],
      "stateMutability": "nonpayable",
      "type": "function"
    },
    {
      "inputs": [
        {
          "internalType": "address",
          "name": "tokenA",
          "type": "address"
        },
        {
          "internalType": "address",
          "name": "tokenB",
          "type": "address"
        }
      ],
      "name": "unpause",
      "outputs": [],
      "stateMutability": "nonpayable",
      "type": "function"
    }
  ],
  "bytecode": "0x608060405234801561001057600080fd5b506040516137db3803806137db83398101604081905261002f91610054565b600180546001600160a01b0319166001600160a01b0392909216919091179055610084565b60006020828403121561006657600080fd5b81516001600160a01b038116811461007d57600080fd5b9392505050565b613748806100936000396000f3fe60806040523480156200001157600080fd5b5060043610620000b75760003560e01c8063590308a5116200007a578063590308a514620001435780636fc4e0e7146200015a578063a2e74af61462000171578063c9c653961462000188578063e6a43905146200019f578063f46901ed14620001d657600080fd5b8063017e7e5814620000bc578063094b741514620000ed5780631e3dd18b14620001015780633c4a37401462000118578063574f2ba31462000131575b600080fd5b600054620000d0906001600160a01b031681565b6040516001600160a01b0390911681526020015b60405180910390f35b600154620000d0906001600160a01b031681565b620000d062000112366004620007c1565b620001ed565b6200012f62000129366004620007f8565b62000218565b005b600354604051908152602001620000e4565b6200012f62000154366004620007f8565b620002c9565b6200012f6200016b36600462000830565b62000354565b6200012f6200018236600462000877565b6200040a565b620000d062000199366004620007f8565b62000459565b620000d0620001b0366004620007f8565b60026020908152600092835260408084209091529082529020546001600160a01b031681565b6200012f620001e736600462000877565b62000764565b60038181548110620001fe57600080fd5b6000918252602090912001546001600160a01b0316905081565b6001546001600160a01b031633146200024e5760405162461bcd60e51b815260040162000245906200089c565b60405180910390fd5b6001600160a01b0380831660009081526002602090815260408083208585168452909152808220548151631fa5d41d60e11b81529151931692633f4ba83a9260048084019391929182900301818387803b158015620002ac57600080fd5b505af1158015620002c1573d6000803e3d6000fd5b505050505050565b6001546001600160a01b03163314620002f65760405162461bcd60e51b815260040162000245906200089c565b6001600160a01b0380831660009081526002602090815260408083208585168452909152808220548151638456cb5960e01b81529151931692638456cb599260048084019391929182900301818387803b158015620002ac57600080fd5b6001546001600160a01b03163314620003815760405162461bcd60e51b815260040162000245906200089c565b6001600160a01b03848116600090815260026020908152604080832087851684529091529081902054905163e3ca2d6560e01b8152600481018590526024810184905291169063e3ca2d6590604401600060405180830381600087803b158015620003eb57600080fd5b505af115801562000400573d6000803e3d6000fd5b5050505050505050565b6001546001600160a01b03163314620004375760405162461bcd60e51b815260040162000245906200089c565b600180546001600160a01b0319166001600160a01b0392909216919091179055565b6000816001600160a01b0316836001600160a01b03161415620004bf5760405162461bcd60e51b815260206004820152601e60248201527f556e697377617056323a204944454e544943414c5f4144445245535345530000604482015260640162000245565b600080836001600160a01b0316856001600160a01b031610620004e4578385620004e7565b84845b90925090506001600160a01b038216620005445760405162461bcd60e51b815260206004820152601760248201527f556e697377617056323a205a45524f5f41444452455353000000000000000000604482015260640162000245565b6001600160a01b03828116600090815260026020908152604080832085851684529091529020541615620005b45760405162461bcd60e51b8152602060048201526016602482015275556e697377617056323a20504149525f45584953545360501b604482015260640162000245565b600060405180602001620005c890620007b3565b601f1982820381018352601f9091011660408190526bffffffffffffffffffffffff19606086811b8216602084015285901b166034820152909150600090604801604051602081830303815290604052805190602001209050808251602084016000f560405163485cc95560e01b81526001600160a01b03868116600483015285811660248301529196509086169063485cc95590604401600060405180830381600087803b1580156200067b57600080fd5b505af115801562000690573d6000803e3d6000fd5b505050506001600160a01b0384811660008181526002602081815260408084208987168086529083528185208054978d166001600160a01b031998891681179091559383528185208686528352818520805488168517905560038054600181018255958190527fc2575a0e9e593c00f959f8c92f12db2869c3395a3b0502d05e2516446f71f85b9095018054909716841790965592548351928352908201527f0d3648bd0f6ba80134a33ba9275ac585d9d315f0ad8355cddefde31afa28d0e9910160405180910390a35050505092915050565b6001546001600160a01b03163314620007915760405162461bcd60e51b815260040162000245906200089c565b600080546001600160a01b0319166001600160a01b0392909216919091179055565b612e4880620008cb83390190565b600060208284031215620007d457600080fd5b5035919050565b80356001600160a01b0381168114620007f357600080fd5b919050565b600080604083850312156200080c57600080fd5b6200081783620007db565b91506200082760208401620007db565b90509250929050565b600080600080608085870312156200084757600080fd5b6200085285620007db565b93506200086260208601620007db565b93969395505050506040820135916060013590565b6000602082840312156200088a57600080fd5b6200089582620007db565b9392505050565b6020808252601490820152732ab734b9bbb0b82b191d102327a92124a22222a760611b60408201526060019056fe60c0604052601060808190526f2628102a27a5a2a72096aa27a5a2a72160811b60a09081526200003391600091906200011e565b506001600d553480156200004657600080fd5b50620000516200006d565b600680546001600160a81b0319166101003302179055620002a5565b7f8b73c3c69bb8fe3d512ecc4cf759cc79239f7b179b0ffacaa9a75d522b39400f60006040516200009f919062000201565b60408051918290038220828201825260018352603160f81b6020938401528151928301939093528101919091527fc89efdaa54c0f20c7adf612882df0950f5a951637e0307cdcb4c672f298b8bc660608201524660808201523060a082015260c00160408051601f198184030181529190528051602090910120600455565b8280546200012c90620001c4565b90600052602060002090601f0160209004810192826200015057600085556200019b565b82601f106200016b57805160ff19168380011785556200019b565b828001600101855582156200019b579182015b828111156200019b5782518255916020019190600101906200017e565b50620001a9929150620001ad565b5090565b5b80821115620001a95760008155600101620001ae565b600181811c90821680620001d957607f821691505b60208210811415620001fb57634e487b7160e01b600052602260045260246000fd5b50919050565b600080835481600182811c9150808316806200021e57607f831692505b60208084108214156200023f57634e487b7160e01b86526022600452602486fd5b818015620002565760018114620002685762000297565b60ff1986168952848901965062000297565b60008a81526020902060005b868110156200028f5781548b82015290850190830162000274565b505084890196505b509498975050505050505050565b612b9380620002b56000396000f3fe608060405234801561001057600080fd5b50600436106102065760003560e01c80636a6278421161011a578063ba9a7a56116100ad578063d505accf1161007c578063d505accf14610484578063dd62ed3e14610497578063e3ca2d65146104c2578063fd615558146104d5578063fff6cae9146104de57600080fd5b8063ba9a7a561461043d578063bc25cf7714610446578063c45a015514610459578063d21220a71461047157600080fd5b80638456cb59116100e95780638456cb59146103d957806389afcb44146103e157806395d89b4114610409578063a9059cbb1461042a57600080fd5b80636a6278421461037d57806370a08231146103905780637464fc3d146103b05780637ecebe00146103b957600080fd5b806324a9d8531161019d5780633f4ba83a1161016c5780633f4ba83a14610345578063485cc9551461034d5780635909c0d5146103605780635a3d5493146103695780635c975abb1461037257600080fd5b806324a9d853146102f257806330adf81f146102fb578063313ce567146103225780633644e5151461033c57600080fd5b80630dfe1681116101d95780630dfe16811461029557806313966db5146102c057806318160ddd146102c857806323b872dd146102df57600080fd5b8063022c0d9f1461020b57806306fdde03146102205780630902f1ac1461023e578063095ea7b314610272575b600080fd5b61021e6102193660046124d9565b6104e6565b005b610228610a29565b604051610235919061259f565b60405180910390f35b610246610ab7565b604080516001600160701b03948516815293909216602084015263ffffffff1690820152606001610235565b6102856102803660046125d2565b610ae1565b6040519015158152602001610235565b6007546102a8906001600160a01b031681565b6040516001600160a01b039091168152602001610235565b61021e610af7565b6102d160015481565b604051908152602001610235565b6102856102ed3660046125fe565b610c88565b6102d1600e5481565b6102d17f6e71edae12b1b97f4d1f60370fef10105fa2faae0126114a169c64845d6126c981565b61032a601281565b60405160ff9091168152602001610235565b6102d160045481565b61021e610d02565b61021e61035b36600461263f565b610d3b565b6102d1600a5481565b6102d1600b5481565b60065460ff16610285565b6102d161038b366004612678565b610ecb565b6102d161039e366004612678565b60026020526000908152604090205481565b6102d1600c5481565b6102d16103c7366004612678565b60056020526000908152604090205481565b61021e6111bc565b6103f46103ef366004612678565b6111f3565b60408051928352602083019190915201610235565b6102286040518060400160405280600281526020016104c560f41b81525081565b6102856104383660046125d2565b61159c565b6102d16103e881565b61021e610454366004612678565b6115a9565b6006546102a89061010090046001600160a01b031681565b6008546102a8906001600160a01b031681565b61021e610492366004612695565b6116d3565b6102d16104a536600461263f565b600360209081526000928352604080842090915290825290205481565b61021e6104d036600461270c565b6118e7565b6102d1600f5481565b61021e6119b0565b6104ee611afa565b600d546001146105195760405162461bcd60e51b81526004016105109061272e565b60405180910390fd5b6000600d558415158061052c5750600084115b6105865760405162461bcd60e51b815260206004820152602560248201527f556e697377617056323a20494e53554646494349454e545f4f55545055545f416044820152641353d5539560da1b6064820152608401610510565b600080610591610ab7565b5091509150816001600160701b0316871080156105b65750806001600160701b031686105b61060c5760405162461bcd60e51b815260206004820152602160248201527f556e697377617056323a20494e53554646494349454e545f4c495155494449546044820152605960f81b6064820152608401610510565b60075460085460009182916001600160a01b0391821691908116908916821480159061064a5750806001600160a01b0316896001600160a01b031614155b61068e5760405162461bcd60e51b8152602060048201526015602482015274556e697377617056323a20494e56414c49445f544f60581b6044820152606401610510565b8a1561069f5761069f828a8d611b40565b89156106b0576106b0818a8c611b40565b861561071d576040516304347a1760e21b81526001600160a01b038a16906310d1e85c906106ea9033908f908f908e908e90600401612759565b600060405180830381600087803b15801561070457600080fd5b505af1158015610718573d6000803e3d6000fd5b505050505b6040516370a0823160e01b81523060048201526001600160a01b038316906370a082319060240160206040518083038186803b15801561075c57600080fd5b505afa158015610770573d6000803e3d6000fd5b505050506040513d601f19601f8201168201806040525081019061079491906127a5565b6040516370a0823160e01b81523060048201529094506001600160a01b038216906370a082319060240160206040518083038186803b1580156107d657600080fd5b505afa1580156107ea573d6000803e3d6000fd5b505050506040513d601f19601f8201168201806040525081019061080e91906127a5565b92505050600089856001600160701b031661082991906127d4565b8311610836576000610853565b6108498a6001600160701b0387166127d4565b61085390846127d4565b9050600061086a8a6001600160701b0387166127d4565b8311610877576000610894565b61088a8a6001600160701b0387166127d4565b61089490846127d4565b905060008211806108a55750600081115b6108fd5760405162461bcd60e51b8152602060048201526024808201527f556e697377617056323a20494e53554646494349454e545f494e5055545f414d60448201526313d5539560e21b6064820152608401610510565b600e54600061090c82856127eb565b610918876127106127eb565b61092291906127d4565b9050600061093083856127eb565b61093c876127106127eb565b61094691906127d4565b905061095e6001600160701b03808a16908b166127eb565b61096c906305f5e1006127eb565b61097682846127eb565b10156109b35760405162461bcd60e51b815260206004820152600c60248201526b556e697377617056323a204b60a01b6044820152606401610510565b5050506109c284848888611c8b565b60408051838152602081018390529081018c9052606081018b90526001600160a01b038a169033907fd78ad95fa46c994b6551d0da85fc275fe613ce37657fb8d5e3d130840159d8229060800160405180910390a350506001600d55505050505050505050565b60008054610a369061280a565b80601f0160208091040260200160405190810160405280929190818152602001828054610a629061280a565b8015610aaf5780601f10610a8457610100808354040283529160200191610aaf565b820191906000526020600020905b815481529060010190602001808311610a9257829003601f168201915b505050505081565b6009546001600160701b0380821692600160701b830490911691600160e01b900463ffffffff1690565b6000610aee338484611e53565b50600192915050565b610aff611afa565b600d54600114610b215760405162461bcd60e51b81526004016105109061272e565b6000600d81905580610b31610ab7565b506007546040516370a0823160e01b81523060048201529294509092506000916001600160a01b03909116906370a082319060240160206040518083038186803b158015610b7e57600080fd5b505afa158015610b92573d6000803e3d6000fd5b505050506040513d601f19601f82011682018060405250810190610bb691906127a5565b6008546040516370a0823160e01b81523060048201529192506000916001600160a01b03909116906370a082319060240160206040518083038186803b158015610bff57600080fd5b505afa158015610c13573d6000803e3d6000fd5b505050506040513d601f19601f82011682018060405250810190610c3791906127a5565b90506000610c458585611eb5565b9050610c5383838787611c8b565b8015610c7c57600954610c78906001600160701b03600160701b8204811691166127eb565b600c555b50506001600d55505050565b6001600160a01b038316600090815260036020908152604080832033845290915281205460001914610ced576001600160a01b038416600090815260036020908152604080832033845290915281208054849290610ce79084906127d4565b90915550505b610cf884848461201f565b5060019392505050565b60065461010090046001600160a01b03163314610d315760405162461bcd60e51b81526004016105109061283f565b610d396120c7565b565b60065461010090046001600160a01b03163314610d6a5760405162461bcd60e51b81526004016105109061283f565b600780546001600160a01b038085166001600160a01b0319928316811790935560088054918516919092161790556003600f55601e600e55604080516395d89b4160e01b815290516395d89b4191600480820192600092909190829003018186803b158015610dd857600080fd5b505afa158015610dec573d6000803e3d6000fd5b505050506040513d6000823e601f3d908101601f19168201604052610e149190810190612883565b816001600160a01b03166395d89b416040518163ffffffff1660e01b815260040160006040518083038186803b158015610e4d57600080fd5b505afa158015610e61573d6000803e3d6000fd5b505050506040513d6000823e601f3d908101601f19168201604052610e899190810190612883565b604051602001610e9a929190612930565b60405160208183030381529060405260009080519060200190610ebe929190612428565b50610ec7612119565b5050565b6000610ed5611afa565b600d54600114610ef75760405162461bcd60e51b81526004016105109061272e565b6000600d81905580610f07610ab7565b506007546040516370a0823160e01b81523060048201529294509092506000916001600160a01b03909116906370a082319060240160206040518083038186803b158015610f5457600080fd5b505afa158015610f68573d6000803e3d6000fd5b505050506040513d601f19601f82011682018060405250810190610f8c91906127a5565b6008546040516370a0823160e01b81523060048201529192506000916001600160a01b03909116906370a082319060240160206040518083038186803b158015610fd557600080fd5b505afa158015610fe9573d6000803e3d6000fd5b505050506040513d601f19601f8201168201806040525081019061100d91906127a5565b905060006110246001600160701b038616846127d4565b9050600061103b6001600160701b038616846127d4565b905060006110498787611eb5565b60015490915080611087576103e861106961106485876127eb565b6121c8565b61107391906127d4565b985061108260006103e8612238565b6110ce565b6110cb6001600160701b03891661109e83876127eb565b6110a89190612991565b6001600160701b0389166110bc84876127eb565b6110c69190612991565b6122ca565b98505b6000891161112f5760405162461bcd60e51b815260206004820152602860248201527f556e697377617056323a20494e53554646494349454e545f4c495155494449546044820152671657d3525395115160c21b6064820152608401610510565b6111398a8a612238565b61114586868a8a611c8b565b811561116e5760095461116a906001600160701b03600160701b8204811691166127eb565b600c555b604080518581526020810185905233917f4c209b5fc8ad50758f13e2e1088ba56a560dff690a1c6fef26394f4c03821c4f910160405180910390a250506001600d5550949695505050505050565b60065461010090046001600160a01b031633146111eb5760405162461bcd60e51b81526004016105109061283f565b610d396122e2565b6000806111fe611afa565b600d546001146112205760405162461bcd60e51b81526004016105109061272e565b6000600d81905580611230610ab7565b506007546008546040516370a0823160e01b81523060048201529395509193506001600160a01b039081169291169060009083906370a082319060240160206040518083038186803b15801561128557600080fd5b505afa158015611299573d6000803e3d6000fd5b505050506040513d601f19601f820116820180604052508101906112bd91906127a5565b6040516370a0823160e01b81523060048201529091506000906001600160a01b038416906370a082319060240160206040518083038186803b15801561130257600080fd5b505afa158015611316573d6000803e3d6000fd5b505050506040513d601f19601f8201168201806040525081019061133a91906127a5565b306000908152600260205260408120549192506113578888611eb5565b6001549091508061136886856127eb565b6113729190612991565b9a508061137f85856127eb565b6113899190612991565b995060008b11801561139b575060008a115b6113f85760405162461bcd60e51b815260206004820152602860248201527f556e697377617056323a20494e53554646494349454e545f4c495155494449546044820152671657d0955493915160c21b6064820152608401610510565b611402308461231f565b61140d878d8d611b40565b611418868d8c611b40565b6040516370a0823160e01b81523060048201526001600160a01b038816906370a082319060240160206040518083038186803b15801561145757600080fd5b505afa15801561146b573d6000803e3d6000fd5b505050506040513d601f19601f8201168201806040525081019061148f91906127a5565b6040516370a0823160e01b81523060048201529095506001600160a01b038716906370a082319060240160206040518083038186803b1580156114d157600080fd5b505afa1580156114e5573d6000803e3d6000fd5b505050506040513d601f19601f8201168201806040525081019061150991906127a5565b935061151785858b8b611c8b565b81156115405760095461153c906001600160701b03600160701b8204811691166127eb565b600c555b604080518c8152602081018c90526001600160a01b038e169133917fdccd412f0b1252819cb1fd330b93224ca42612892bb3f4f789976e6d81936496910160405180910390a35050505050505050506001600d81905550915091565b6000610aee33848461201f565b6115b1611afa565b600d546001146115d35760405162461bcd60e51b81526004016105109061272e565b6000600d556007546008546009546040516370a0823160e01b81523060048201526001600160a01b03938416939092169161168191849186916001600160701b03169083906370a08231906024015b60206040518083038186803b15801561163a57600080fd5b505afa15801561164e573d6000803e3d6000fd5b505050506040513d601f19601f8201168201806040525081019061167291906127a5565b61167c91906127d4565b611b40565b6009546040516370a0823160e01b81523060048201526116c99183918691600160701b90046001600160701b0316906001600160a01b038416906370a0823190602401611622565b50506001600d5550565b428410156117185760405162461bcd60e51b8152602060048201526012602482015271155b9a5cddd85c158c8e881156141254915160721b6044820152606401610510565b6004546001600160a01b038816600090815260056020526040812080549192917f6e71edae12b1b97f4d1f60370fef10105fa2faae0126114a169c64845d6126c9918b918b918b91908761176b836129a5565b909155506040805160208101969096526001600160a01b0394851690860152929091166060840152608083015260a082015260c0810187905260e001604051602081830303815290604052805190602001206040516020016117e492919061190160f01b81526002810192909252602282015260420190565b60408051601f198184030181528282528051602091820120600080855291840180845281905260ff88169284019290925260608301869052608083018590529092509060019060a0016020604051602081039080840390855afa15801561184f573d6000803e3d6000fd5b5050604051601f1901519150506001600160a01b038116158015906118855750886001600160a01b0316816001600160a01b0316145b6118d15760405162461bcd60e51b815260206004820152601c60248201527f556e697377617056323a20494e56414c49445f5349474e4154555245000000006044820152606401610510565b6118dc898989611e53565b505050505050505050565b60065461010090046001600160a01b031633146119165760405162461bcd60e51b81526004016105109061283f565b61271082106119545760405162461bcd60e51b815260206004820152600a6024820152694261642066656542707360b01b6044820152606401610510565b6000811161199d5760405162461bcd60e51b81526020600482015260166024820152752130b210383937ba37b1b7b62332b2a234bb34b232b960511b6044820152606401610510565b6119a5610af7565b600e91909155600f55565b6119b8611afa565b600d546001146119da5760405162461bcd60e51b81526004016105109061272e565b6000600d556007546040516370a0823160e01b8152306004820152611af3916001600160a01b0316906370a082319060240160206040518083038186803b158015611a2457600080fd5b505afa158015611a38573d6000803e3d6000fd5b505050506040513d601f19601f82011682018060405250810190611a5c91906127a5565b6008546040516370a0823160e01b81523060048201526001600160a01b03909116906370a082319060240160206040518083038186803b158015611a9f57600080fd5b505afa158015611ab3573d6000803e3d6000fd5b505050506040513d601f19601f82011682018060405250810190611ad791906127a5565b6009546001600160701b0380821691600160701b900416611c8b565b6001600d55565b60065460ff1615610d395760405162461bcd60e51b815260206004820152601060248201526f14185d5cd8589b194e881c185d5cd95960821b6044820152606401610510565b604080518082018252601981527f7472616e7366657228616464726573732c75696e74323536290000000000000060209182015281516001600160a01b0385811660248301526044808301869052845180840390910181526064909201845291810180516001600160e01b031663a9059cbb60e01b17905291516000928392871691611bcc91906129c0565b6000604051808303816000865af19150503d8060008114611c09576040519150601f19603f3d011682016040523d82523d6000602084013e611c0e565b606091505b5091509150818015611c38575080511580611c38575080806020019051810190611c3891906129dc565b611c845760405162461bcd60e51b815260206004820152601a60248201527f556e697377617056323a205452414e534645525f4641494c45440000000000006044820152606401610510565b5050505050565b6001600160701b038411801590611ca957506001600160701b038311155b611ceb5760405162461bcd60e51b8152602060048201526013602482015272556e697377617056323a204f564552464c4f5760681b6044820152606401610510565b6000611cfc640100000000426129fe565b600954909150600090611d1c90600160e01b900463ffffffff1683612a12565b905060008163ffffffff16118015611d3c57506001600160701b03841615155b8015611d5057506001600160701b03831615155b15611dbb578063ffffffff16611d7885611d69866123ab565b6001600160e01b0316906123ca565b600a80546001600160e01b03929092169290920201905563ffffffff8116611da384611d69876123ab565b600b80546001600160e01b0392909216929092020190555b6009805463ffffffff8416600160e01b026001600160e01b036001600160701b03898116600160701b9081026001600160e01b03199095168c83161794909417918216831794859055604080519382169282169290921783529290930490911660208201527f1c411e9a96e071241c2f21f7726b17ae89e3cab4c78be50e062b03a9fffbbad1910160405180910390a1505050505050565b6001600160a01b0383811660008181526003602090815260408083209487168084529482529182902085905590518481527f8c5be1e5ebec7d5bd14f71427d1e84f3dd0314c0f7b2291e5b200ac8c7c3b92591015b60405180910390a3505050565b600080600660019054906101000a90046001600160a01b03166001600160a01b031663017e7e586040518163ffffffff1660e01b815260040160206040518083038186803b158015611f0657600080fd5b505afa158015611f1a573d6000803e3d6000fd5b505050506040513d601f19601f82011682018060405250810190611f3e9190612a37565b90506001600160a01b03811615801590611f5a57506000600f54115b600c54909250821561200b578015612006576000611f876110646001600160701b038088169089166127eb565b90506000611f94836121c8565b905080821115612003576000611faa82846127d4565b600154611fb791906127eb565b90506000826001600f54611fcb91906127d4565b611fd590866127eb565b611fdf9190612a54565b90506000611fed8284612991565b90508015611fff57611fff8782612238565b5050505b50505b612017565b8015612017576000600c555b505092915050565b6001600160a01b0383166000908152600260205260409020546120439082906127d4565b6001600160a01b038085166000908152600260205260408082209390935590841681522054612073908290612a54565b6001600160a01b0380841660008181526002602052604090819020939093559151908516907fddf252ad1be2c89b69c2b068fc378daa952ba7f163c4a11628f55a4df523b3ef90611ea89085815260200190565b6120cf6123df565b6006805460ff191690557f5db9ee0a495bf2e6ff9c91a7834c1ba4fdd244a5e8aa4e537bd38aeae4b073aa335b6040516001600160a01b03909116815260200160405180910390a1565b7f8b73c3c69bb8fe3d512ecc4cf759cc79239f7b179b0ffacaa9a75d522b39400f60006040516121499190612a6c565b60408051918290038220828201825260018352603160f81b6020938401528151928301939093528101919091527fc89efdaa54c0f20c7adf612882df0950f5a951637e0307cdcb4c672f298b8bc660608201524660808201523060a082015260c00160408051601f198184030181529190528051602090910120600455565b6000600382111561222957508060006121e2600283612991565b6121ed906001612a54565b90505b81811015612223579050806002816122088186612991565b6122129190612a54565b61221c9190612991565b90506121f0565b50919050565b8115612233575060015b919050565b806001546122469190612a54565b6001556001600160a01b03821660009081526002602052604090205461226d908290612a54565b6001600160a01b0383166000818152600260205260408082209390935591519091907fddf252ad1be2c89b69c2b068fc378daa952ba7f163c4a11628f55a4df523b3ef906122be9085815260200190565b60405180910390a35050565b60008183106122d957816122db565b825b9392505050565b6122ea611afa565b6006805460ff191660011790557f62e78cea01bee320cd4e420270b5ea74000d11b0c9f74754ebdbfc544b05a2586120fc3390565b6001600160a01b0382166000908152600260205260409020546123439082906127d4565b6001600160a01b03831660009081526002602052604090205560015461236a9082906127d4565b6001556040518181526000906001600160a01b038416907fddf252ad1be2c89b69c2b068fc378daa952ba7f163c4a11628f55a4df523b3ef906020016122be565b60006123c4600160701b6001600160701b038416612b08565b92915050565b60006122db6001600160701b03831684612b37565b60065460ff16610d395760405162461bcd60e51b815260206004820152601460248201527314185d5cd8589b194e881b9bdd081c185d5cd95960621b6044820152606401610510565b8280546124349061280a565b90600052602060002090601f016020900481019282612456576000855561249c565b82601f1061246f57805160ff191683800117855561249c565b8280016001018555821561249c579182015b8281111561249c578251825591602001919060010190612481565b506124a89291506124ac565b5090565b5b808211156124a857600081556001016124ad565b6001600160a01b03811681146124d657600080fd5b50565b6000806000806000608086880312156124f157600080fd5b8535945060208601359350604086013561250a816124c1565b9250606086013567ffffffffffffffff8082111561252757600080fd5b818801915088601f83011261253b57600080fd5b81358181111561254a57600080fd5b89602082850101111561255c57600080fd5b9699959850939650602001949392505050565b60005b8381101561258a578181015183820152602001612572565b83811115612599576000848401525b50505050565b60208152600082518060208401526125be81604085016020870161256f565b601f01601f19169190910160400192915050565b600080604083850312156125e557600080fd5b82356125f0816124c1565b946020939093013593505050565b60008060006060848603121561261357600080fd5b833561261e816124c1565b9250602084013561262e816124c1565b929592945050506040919091013590565b6000806040838503121561265257600080fd5b823561265d816124c1565b9150602083013561266d816124c1565b809150509250929050565b60006020828403121561268a57600080fd5b81356122db816124c1565b600080600080600080600060e0888a0312156126b057600080fd5b87356126bb816124c1565b965060208801356126cb816124c1565b95506040880135945060608801359350608088013560ff811681146126ef57600080fd5b9699959850939692959460a0840135945060c09093013592915050565b6000806040838503121561271f57600080fd5b50508035926020909101359150565b602080825260119082015270155b9a5cddd85c158c8e881313d0d2d151607a1b604082015260600190565b60018060a01b038616815284602082015283604082015260806060820152816080820152818360a0830137600081830160a090810191909152601f909201601f19160101949350505050565b6000602082840312156127b757600080fd5b5051919050565b634e487b7160e01b600052601160045260246000fd5b6000828210156127e6576127e66127be565b500390565b6000816000190483118215151615612805576128056127be565b500290565b600181811c9082168061281e57607f821691505b6020821081141561222357634e487b7160e01b600052602260045260246000fd5b6020808252601490820152732ab734b9bbb0b82b191d102327a92124a22222a760611b604082015260600190565b634e487b7160e01b600052604160045260246000fd5b60006020828403121561289557600080fd5b815167ffffffffffffffff808211156128ad57600080fd5b818401915084601f8301126128c157600080fd5b8151818111156128d3576128d361286d565b604051601f8201601f19908116603f011681019083821181831017156128fb576128fb61286d565b8160405282815287602084870101111561291457600080fd5b61292583602083016020880161256f565b979650505050505050565b6202628160ed1b81526000835161294e81600385016020880161256f565b602d60f81b600391840191820152835161296f81600484016020880161256f565b01600401949350505050565b634e487b7160e01b600052601260045260246000fd5b6000826129a0576129a061297b565b500490565b60006000198214156129b9576129b96127be565b5060010190565b600082516129d281846020870161256f565b9190910192915050565b6000602082840312156129ee57600080fd5b815180151581146122db57600080fd5b600082612a0d57612a0d61297b565b500690565b600063ffffffff83811690831681811015612a2f57612a2f6127be565b039392505050565b600060208284031215612a4957600080fd5b81516122db816124c1565b60008219821115612a6757612a676127be565b500190565b600080835481600182811c915080831680612a8857607f831692505b6020808410821415612aa857634e487b7160e01b86526022600452602486fd5b818015612abc5760018114612acd57612afa565b60ff19861689528489019650612afa565b60008a81526020902060005b86811015612af25781548b820152908501908301612ad9565b505084890196505b509498975050505050505050565b60006001600160e01b0382811684821681151582840482111615612b2e57612b2e6127be565b02949350505050565b60006001600160e01b0383811680612b5157612b5161297b565b9216919091049291505056fea2646970667358221220e149414d6aef26affec75704b2acad4155266b707b373a3f041b33931a334ac064736f6c63430008090033a26469706673582212204765fa22a742b92fd9580069d7c7641f914d3b220d241e70f18914f522fdbbc464736f6c63430008090033",
  "linkReferences": {},
  "deployedLinkReferences": {}
}